:100000000C9462000C948A000C948A000C948A0070
:100010000C948A000C948A000C948A000C948A0038
:100020000C948A000C948A000C948A000C948A0028
:100030000C948A000C948A000C948A000C948A0018
:100040000C946E0E0C948A000C943C0E0C94160EBC
:100050000C948A000C948A000C948A000C948A00F8
:100060000C948A000C948A000000000024002700F1
:100070002A0000000008000201000003040700003D
:1000800000000000000000000000230026002900FE
:1000900000000000250028002B00040404040404D0
:1000A0000404020202020202030303030303010227
:1000B00004081020408001020408102001020408F6
:1000C0001020B80E11241FBECFEFD8E0DEBFCDBF89
:1000D00011E0A0E0B1E0EEE2F6E202C005900D9280
:1000E000A83BB107D9F724E0A8EBB1E001C01D920D
:1000F000A13EB207E1F710E0C2E6D0E004C02197CC
:10010000FE010E94FB12C136D107C9F70E94480FB9
:100110000C9415130C9400000F931F93CF93DF934F
:100120008C01D0E0C0E08091B0029091B102DC017E
:10013000ED91FC910084F185E02D0995C817D90750
:10014000D4F4A091B002B091B102CE01880F991FF2
:100150008C0F9D1F1296ED91FC91E80FF91FD801AD
:100160008C91808311968C911197818312968C913A
:1001700082832196D8CFDF91CF911F910F9108955F
:10018000CF92DF92EF92FF928FB7F8942091F9010E
:100190003091FA014091FB015091FC018FBFE09139
:1001A000FD01F091FE0188EE93E0E89FB001E99F28
:1001B000700DF89F700D1124072E000C880B990B01
:1001C000C090FF01D0900002E0900102F090020286
:1001D0002C193D094E095F090E94B3123093A20207
:1001E0002093A1021092FE011092FD012FB7F89406
:1001F0008091F9019091FA01A091FB01B091FC016D
:100200002FBF8093FF0190930002A0930102B0934F
:100210000202FF90EF90DF90CF90089520E0DC0184
:1002200060FF03C001C02D932D936250E0F7704032
:10023000D0F70895CF93DF93C091F701D091F801E3
:10024000209789F08A819B81009749F02D853E8512
:10025000B901660F771F620F731F0E940E010C8099
:10026000DD81C02DEDCFDF91CF910895DC01179690
:100270002C91179730E0F901E255FF4FE491169663
:10028000EC93169726563F4FF9018491E82FF0E042
:10029000EE0FFF1FE057FF4F8591949113969C93AB
:1002A0008E931297F9012491E22FF0E0EE0FFF1FD9
:1002B000EA57FF4F8591949115969C938E931497CE
:1002C000089580E991E00895AF92BF92CF92DF92B6
:1002D000EF92FF920F931F93CF93DF936C017B01FB
:1002E0008B01040F151FEB015E01AE18BF08C0178C
:1002F000D10759F06991D601ED91FC910190F081FF
:10030000E02DC6010995892B79F7C501DF91CF91C1
:100310001F910F91FF90EF90DF90CF90BF90AF9023
:100320000895FC01538D448D252F30E0842F90E0FB
:10033000821B930B541710F0CF96089501970895E0
:10034000FC01918D828D981761F0A28DAE0FBF2FA9
:10035000B11D5D968C91928D9F5F9F73928F90E0FF
:1003600008958FEF9FEF0895FC01918D828D98176E
:1003700031F0828DE80FF11D858D90E008958FEFAB
:100380009FEF0895FC01918D228D892F90E0805C74
:100390009F4F821B91098F739927089583E092E004
:1003A0000E94C20121E0892B09F420E0822F0895E8
:1003B00080E090E0892B29F00E94CE0181110C94FD
:1003C00000000895FC01A48DA80FB92FB11DA35AF8
:1003D000BF4F2C91848D90E001968F739927848F65
:1003E000A689B7892C93A089B1898C918370806488
:1003F0008C93938D848D981306C00288F389E02D29
:1004000080818F7D80830895EF92FF920F931F93D9
:10041000CF93DF93EC0181E0888F9B8D8C8D9813B7
:100420001AC0E889F989808185FF15C09FB7F894C3
:10043000EE89FF896083E889F9898081837080640F
:1004400080839FBF81E090E0DF91CF911F910F915A
:10045000FF90EF900895F62E0B8D10E00F5F1F4F69
:100460000F731127E02E8C8D8E110CC00FB607FC78
:10047000FACFE889F989808185FFF5CFCE010E9406
:10048000E201F1CFEB8DEC0FFD2FF11DE35AFF4F91
:10049000F0829FB7F8940B8FEA89FB898081806294
:1004A000CFCFCF93DF93EC01888D8823B9F0AA8951
:1004B000BB89E889F9898C9185FD03C0808186FD1F
:1004C0000DC00FB607FCF7CF8C9185FFF2CF80816E
:1004D00085FFEDCFCE010E94E201E9CFDF91CF9100
:1004E0000895833081F028F4813099F08230A9F0AA
:1004F00008958730A9F08830C9F08430B1F4809134
:1005000080008F7D03C0809180008F778093800072
:10051000089584B58F7784BD089584B58F7DFBCF12
:100520008091B0008F778093B00008958091B000E3
:100530008F7DF9CFCF93DF9390E0FC01E255FF4F21
:10054000249186569F4FFC0184918823D1F090E03E
:10055000880F991FFC01E859FF4FA591B491FC0148
:10056000E057FF4FC591D491623071F49FB7F89472
:100570003C91822F809583238C93E8812E2B2883B6
:100580009FBFDF91CF9108958FB7F894EC912E2BF8
:100590002C938FBFF6CF3FB7F8948091BD01909117
:1005A000BE01A091BF01B091C00126B5A89B05C0B6
:1005B0002F3F19F00196A11DB11D3FBFBA2FA92FE2
:1005C000982F8827BC01CD01620F711D811D911DDF
:1005D00042E0660F771F881F991F4A95D1F708954B
:1005E0003F924F925F926F927F928F929F92AF92C3
:1005F000BF92CF92DF92EF92FF920F931F93CF9310
:10060000DF9300D01F92CDB7DEB74C018091A302DB
:100610009091A402A091A502B091A602892B8A2BE9
:100620008B2BD9F00E94CB020091F3011091F401C1
:100630002091F5013091F601601B710B820B930B39
:100640000091A3021091A4022091A5023091A6026C
:100650006017710782079307C8F20E94CB0260936C
:10066000F3017093F4018093F5019093F601E0910A
:10067000AB02F091AC02D12C309759F04091A70217
:100680005091A8026091A9027091AA0280E0099598
:10069000D82E0091F7011091F8014D2C512C712C9E
:1006A000612C0115110509F45BC0D8011C96CC9092
:1006B0001C978091A1029091A2028436910510F4BA
:1006C0001C961C92D801ED91FC91A080B1801982FA
:1006D0001A821B82DD2089F1F8013696F12CE12C7B
:1006E0002191222319F13280332001F130E050E0D2
:1006F00040E02F5F3F4F4F4F5F4FC301B2010E9459
:100700008F129B01AC01832D90E0B0E0A0E0BC0112
:10071000CD016F5F7F4F8F4F9F4F0E948F12A1E0DF
:10072000B0E0AC0FBD1FAE0DBF1D8C93BFEFEB1A39
:10073000FB0A83E0E816F10499F6D8011D964D9165
:100740005C919E012F5F3F4FB401C801F5010995EF
:10075000D8011C96CC921C9714960D911C91A1CF98
:100760008091FD019091FE019C012F5F3F4F3093DE
:10077000FE012093FD01499714F00E94C0000F90E4
:100780000F900F90DF91CF911F910F91FF90EF90FD
:10079000DF90CF90BF90AF909F908F907F906F90A1
:1007A0005F904F903F9008952F923F924F925F92AB
:1007B0006F927F928F929F92AF92BF92CF92DF9271
:1007C000EF92FF920F931F93CF93DF93CDB7DEB7D6
:1007D00029970FB6F894DEBF0FBECDBF8987498336
:1007E0005A836B837C830091F7011091F801BDE778
:1007F0008B2E912CA12CB12C0115110509F46BC085
:10080000D801ED91FC910084F185E02DC801099596
:100810001C01D8011296ED91FC91C12CD12C7601CE
:10082000412C512C320120E030E0A901009791F0D9
:100830006081260F311D411D511D6181460E511CE5
:10084000611C711C6281C60ED11CE11CF11C019758
:100850003396ECCFA0E5B0E00E94DC126D837E837E
:100860008F839887A7E3B0E0A30192010E94DC1276
:100870002B013C01ABE4B0E0A70196010E94DC1221
:100880002D813E814F815885C32ED42EE52EFF2425
:1008900045E0429D9001439D300D1124C20ED31EB0
:1008A000E11CF11C8C0C9D1CAE1CBF1C452C562C55
:1008B000672C7724840C951CA61CB71C472F582F37
:1008C000692F7727840E951EA61EB71ED801149691
:1008D0000D911C9191CFB985CB2ED12CF12CE12C0F
:1008E000A7019601C501B4010E948F12872E982E90
:1008F000A92EBB2429813A814B815C818216930603
:10090000A406B50668F0A701960169817A818B81FA
:100910009C810E948F12A50194010E94B312298725
:10092000898529960FB6F894DEBF0FBECDBFDF9143
:10093000CF911F910F91FF90EF90DF90CF90BF90DC
:10094000AF909F908F907F906F905F904F903F906F
:100950002F900895FC01A281B3819C91868126810C
:10096000982381E0921380E00895FC018681028043
:10097000F381E02D90818095892380830895FC0187
:1009800096810280F381E02D8081892B80830895F8
:100990000F931F93CF93DF932091BB012F5F322FD3
:1009A00037703093BB0120FF2BC020E831FD20645D
:1009B000347009F02062205FFC01EC01239600E016
:1009C00011E06485662329F070E0C8010E949F123F
:1009D0006F5F6187322F369F030E30E0311D112487
:1009E000311110C01682662311F061506187319673
:1009F000EC17FD0731F7DF91CF911F910F9108950B
:100A000020E0D4CF31503683EECF4F925F926F9279
:100A10007F928F92AF92BF92CF92DF92EF920F931D
:100A20001F93CF93DF933C01EB010E94CB02F301B4
:100A300027853089621B730B6A307105B0F3F89417
:100A4000E881F9817BB178606BB1677F6BB9CA844B
:100A50008F812C2D281B822F2F83BF844A805B809F
:100A60001D850C85DE841F5F0F5FD3949E813885C2
:100A7000A984EB844181D20120E0C32F522F322F71
:100A80003181442788943111380F08F43FEF819564
:100A9000889410FD430F4795889411FD430F4795A7
:100AA000889412FD430F4795889413FD430F479593
:100AB000889414FD430F4795889415FD430F47957F
:100AC000889416FD430F4795889417FD430F47956B
:100AD0008894232F1111242F8C0D422F002C7BB9C9
:100AE00000C047FF6BB930812227889400C000C046
:100AF000002C6BB93111390F00C0002C7BB900C03C
:100B000046FF6BB908F43FEF9195889400C000C090
:100B1000002C6BB900FD230F00C0002C7BB900C076
:100B200045FF6BB92795889401FD230F00C000C0D5
:100B3000002C6BB92795889400C0002C7BB900C0AD
:100B400044FF6BB902FD230F2795889400C000C0B5
:100B5000002C6BB903FD230F00C0002C7BB900C033
:100B600043FF6BB92795889404FD230F00C000C094
:100B7000002C6BB92795889400C0002C7BB900C06D
:100B800042FF6BB905FD230F2795889400C000C074
:100B9000002C6BB906FD230F00C0002C7BB900C0F0
:100BA00041FF6BB92795889407FD230F00C000C053
:100BB000002C6BB92795889400C0002C7BB900C02D
:100BC00040FF6BB9432F0111422F9A0D00C000C0A6
:100BD000002C6BB900C000C0002C7BB900C047FFDF
:100BE0006BB932812227889400C000C0002C6BB9F9
:100BF00031113C0F00C0002C7BB900C046FF6BB91F
:100C000008F43FEFEB0DF11D00C000C0002C6BB9E4
:100C1000D0FC230F00C0002C7BB900C045FF6BB98E
:100C200027958894D1FC230F00C000C0002C6BB91D
:100C30002795889400C0002C7BB900C044FF6BB995
:100C4000D2FC230F2795889400C000C0002C6BB9FC
:100C5000D3FC230F00C0002C7BB900C043FF6BB94D
:100C600027958894D4FC230F00C000C0002C6BB9DA
:100C70002795889400C0002C7BB900C042FF6BB957
:100C8000D5FC230F2795889400C000C0002C6BB9B9
:100C9000D6FC230F00C0002C7BB900C041FF6BB90C
:100CA00027958894D7FC230F00C000C0002C6BB997
:100CB0002795889400C0002C7BB900C040FF6BB919
:100CC000432FD110422FC19500C000C0002C6BB93A
:100CD000CE0D00C000C07BB900C047FF6BB93181A9
:100CE0002227889400C000C0002C6BB93111380F46
:100CF00000C0002C7BB900C046FF6BB908F43FEF81
:100D00008195889400C000C0002C6BB910FD230FA2
:100D100000C0002C7BB900C045FF6BB927958894B3
:100D200011FD230F00C000C0002C6BB927958894DB
:100D300000C0002C7BB900C044FF6BB912FD230F2B
:100D40002795889400C000C0002C6BB913FD230FB9
:100D500000C0002C7BB900C043FF6BB92795889475
:100D600014FD230F00C000C0002C6BB92795889498
:100D700000C0002C7BB900C042FF6BB915FD230FEA
:100D80002795889400C000C0002C6BB916FD230F76
:100D900000C0002C7BB900C041FF6BB92795889437
:100DA00017FD230F00C000C0002C6BB92795889455
:100DB00000C0002C7BB900C040FF6BB9432F11115C
:100DC000422F8C0D00C000C0002C6BB9119709F0A8
:100DD00086CE20EE31E0D2010E94D512DC01CB019B
:100DE000F4E0B695A79597958795FA95D1F730E0F9
:100DF00020E0B901EAE94E9E040C611D5E9E600D83
:100E0000711D1124650D711D860F971FA11DB11D48
:100E1000893E43E09407A105B10508F434C0885E1B
:100E20009340A109B10942E0B695A795979587959A
:100E30004A95D1F747E0849F080E211D949F200D0D
:100E4000311D1124290F311D6091BA0170E0860F08
:100E5000971F820F931F4091F9015091FA01609101
:100E6000FB017091FC01292F3327420F531F611D95
:100E7000711D4093F9015093FA016093FB01709347
:100E8000FC018093BA0178940E94CB02F301708B2D
:100E90006787DF91CF911F910F91EF90DF90CF90F7
:100EA000BF90AF908F907F906F905F904F9008951C
:100EB000539A08954F925F926F927F928F92AF9262
:100EC000BF92CF92DF92EF920F931F93CF93DF9356
:100ED0003C01EB010E94CB02F30127853089621BA4
:100EE000730B6A307105B0F3F894E881F9817BB136
:100EF00070686BB16F776BB9CA848F812C2D281BFA
:100F0000822F2F83BF844A805B801D850C85DE8401
:100F10001F5F0F5FD3949E813885A984EB84418144
:100F2000D20120E0C32F522F322F318144278894E1
:100F30003111380F08F43FEF8195889410FD430F6D
:100F40004795889411FD430F4795889412FD430FF0
:100F50004795889413FD430F4795889414FD430FDC
:100F60004795889415FD430F4795889416FD430FC8
:100F70004795889417FD430F47958894232F1111A7
:100F8000242F8C0D422F002C7BB900C047FF6BB97A
:100F900030812227889400C000C0002C6BB9311129
:100FA000390F00C0002C7BB900C046FF6BB908F4B4
:100FB0003FEF9195889400C000C0002C6BB900FDF4
:100FC000230F00C0002C7BB900C045FF6BB92795EB
:100FD000889401FD230F00C000C0002C6BB9279539
:100FE000889400C0002C7BB900C044FF6BB902FD9F
:100FF000230F2795889400C000C0002C6BB903FD17
:10100000230F00C0002C7BB900C043FF6BB92795AC
:10101000889404FD230F00C000C0002C6BB92795F5
:10102000889400C0002C7BB900C042FF6BB905FD5D
:10103000230F2795889400C000C0002C6BB906FDD3
:10104000230F00C0002C7BB900C041FF6BB927956E
:10105000889407FD230F00C000C0002C6BB92795B2
:10106000889400C0002C7BB900C040FF6BB9432FAF
:101070000111422F9A0D00C000C0002C6BB900C0B6
:1010800000C0002C7BB900C047FF6BB9328122271A
:10109000889400C000C0002C6BB931113C0F00C017
:1010A000002C7BB900C046FF6BB908F43FEFEB0D95
:1010B000F11D00C000C0002C6BB9D0FC230F00C094
:1010C000002C7BB900C045FF6BB927958894D1FCF3
:1010D000230F00C000C0002C6BB92795889400C076
:1010E000002C7BB900C044FF6BB9D2FC230F2795BD
:1010F000889400C000C0002C6BB9D3FC230F00C043
:10110000002C7BB900C043FF6BB927958894D4FCB1
:10111000230F00C000C0002C6BB92795889400C035
:10112000002C7BB900C042FF6BB9D5FC230F27957B
:10113000889400C000C0002C6BB9D6FC230F00C0FF
:10114000002C7BB900C041FF6BB927958894D7FC70
:10115000230F00C000C0002C6BB92795889400C0F5
:10116000002C7BB900C040FF6BB9432FD110422F38
:10117000C19500C000C0002C6BB9CE0D00C000C0EE
:101180007BB900C047FF6BB931812227889400C02A
:1011900000C0002C6BB93111380F00C0002C7BB996
:1011A00000C046FF6BB908F43FEF8195889400C0FA
:1011B00000C0002C6BB910FD230F00C0002C7BB9C0
:1011C00000C045FF6BB92795889411FD230F00C01F
:1011D00000C0002C6BB92795889400C0002C7BB907
:1011E00000C044FF6BB912FD230F2795889400C0FF
:1011F00000C0002C6BB913FD230F00C0002C7BB97D
:1012000000C043FF6BB92795889414FD230F00C0DD
:1012100000C0002C6BB92795889400C0002C7BB9C6
:1012200000C042FF6BB915FD230F2795889400C0BD
:1012300000C0002C6BB916FD230F00C0002C7BB939
:1012400000C041FF6BB92795889417FD230F00C09C
:1012500000C0002C6BB92795889400C0002C7BB986
:1012600000C040FF6BB9432F1111422F8C0D00C0FD
:1012700000C0002C6BB9119709F086CE20EE31E04A
:10128000D2010E94D512DC01CB01F4E0B695A795FE
:1012900097958795FA95D1F730E020E0B901EAE912
:1012A0004E9E040C611D5E9E600D711D1124650D26
:1012B000711D860F971FA11DB11D893E43E0940744
:1012C000A105B10508F434C0885E9340A109B109B5
:1012D00042E0B695A795979587954A95D1F747E04F
:1012E000849F080E211D949F200D311D1124290F6C
:1012F000311D6091BA0170E0860F971F820F931F16
:101300004091F9015091FA016091FB017091FC014B
:10131000292F3327420F531F611D711D4093F9017F
:101320005093FA016093FB017093FC018093BA0122
:1013300078940E94CB02F301708B6787DF91CF9185
:101340001F910F91EF90DF90CF90BF90AF908F9053
:101350007F906F905F904F900895579A08950F93E4
:101360001F93CF93DF93CDB7DEB762970FB6F89494
:10137000DEBF0FBECDBF8C01F901DC011C968C9144
:101380007A8369835C834B835E834D8390819D87E1
:1013900091819E8792819F878130F1F4CE010196E1
:1013A0000E94C80483E0888B1A8A198AD801ED91BB
:1013B000FC910484F585E02DBE016F5F7F4FC8016D
:1013C000099562960FB6F894DEBF0FBECDBFDF91D0
:1013D000CF911F910F9108951C861B861A8619863E
:1013E00018861F82DFCF0F931F93CF93DF93CDB764
:1013F000DEB762970FB6F894DEBF0FBECDBF8C018B
:10140000F901DC011C968C917A8369835C834B83A0
:101410005E834D8390819D8791819E8792819F8776
:101420008130E9F4CE0101960E94C804188A1A8A14
:10143000198AD801ED91FC910484F585E02DBE0157
:101440006F5F7F4FC801099562960FB6F894DEBFB3
:101450000FBECDBFDF91CF911F910F9108951C86D4
:101460001B861A86198618861F82E0CF0895089574
:1014700080E008956C30710579F06D30710599F058
:101480006B30710539F4DC01ED91FC910680F78138
:10149000E02D099580E00895DC01ED91FC91008438
:1014A000F185E02DF6CFDC01ED91FC910284F3850E
:1014B000E02DEFCF8CEC94E00E943A0A80E0089592
:1014C0003F924F925F926F927F928F929F92AF92D4
:1014D000BF92CF92DF92EF92FF920F931F93CF9321
:1014E000DF9300D01F92CDB7DEB75C018091DA04A4
:1014F000813021F088ED94E00E946A0C8091CE0446
:10150000813021F08CEC94E00E942F0DD5011296D1
:101510008C911297882309F4BCC01596FC90809199
:10152000A3029091A402A091A502B091A602892BDA
:101530008A2B8B2BD9F00E94CB020091F3011091E2
:10154000F4012091F5013091F601601B710B820BC3
:10155000930B0091A3021091A4022091A502309157
:10156000A6026017710782079307C8F20E94CB0298
:101570006093F3017093F4018093F5019093F60169
:10158000E091AB02F091AC02309759F04091A70284
:101590005091A8026091A9027091AA028F2D09951D
:1015A000F82E0091F7011091F8014F2C512C712C5D
:1015B000612C0115110509F45BC0F801E4848091E8
:1015C000A1029091A2028436910508F41486D801F4
:1015D000ED91FC918280938019821A821B82FF20F8
:1015E00089F1F8013696D12CC12C2191222319F1D1
:1015F0003280332001F130E050E040E02F5F3F4F78
:101600004F4F5F4FC301B2010E948F129B01AC018B
:10161000832D90E0B0E0A0E0BC01CD016F5F7F4F73
:101620008F4F9F4F0E948F12A1E0B0E0AC0FBD1F03
:10163000AC0DBD1D8C93BFEFCB1ADB0A83E0C8163F
:10164000D10499F6D8011D964D915C911E97129682
:101650006D917C919E012F5F3F4FC801F401099568
:10166000D8011C96EC921C9714960D911C91A1CF59
:101670008091FD019091FE019C012F5F3F4F3093BF
:10168000FE012093FD01499714F00E94C000F5016E
:1016900012820F900F900F90DF91CF911F910F91B9
:1016A000FF90EF90DF90CF90BF90AF909F908F9082
:1016B0007F906F905F904F903F90089522E0FC01E3
:1016C0002283089521E0FC0122830895FC01128207
:1016D000089590E080E00895FC0185859685089541
:1016E000CF93DF9300D000D000D0CDB7DEB7AB01F1
:1016F0001C821D821E82DC01ED91FC910190F08123
:10170000E02D19821A821B829E012F5F3F4FBE017E
:101710006C5F7F4F099526960FB6F894DEBF0FBE1B
:10172000CDBFDF91CF910895FC018AE091E09183D4
:101730008083138212828FEF8683878380878187DD
:101740008287838781E084871686158615821482B6
:101750008091F7019091F801892B21F4F093F80121
:10176000E093F701A091B801B091B901109721F071
:101770001596FC93EE931497F093B901E093B8019A
:101780000895FC0101900020E9F73197AF01481B53
:10179000590BBC0183E092E00C946401CF93DF937A
:1017A0000E94C10BEC0188E791E00E94C10B8C0FF5
:1017B0009D1FDF91CF910895FC012281211106C068
:1017C00022E022838BE791E00C94CE0B0895FC017C
:1017D0002281213031F021E0228381E891E00C94D4
:1017E000CE0B0895382F462F2FB7F8946091F9014A
:1017F0007091FA018091FB019091FC012FBF20E2D2
:10180000241B231B022E04C0660F771F881F991FFD
:101810000A94D2F704C096958795779567952A958F
:10182000D2F704C096958795779567953A95D2F744
:101830000895CF93DF93EC0161E08AE00E94F20B00
:101840008B8160FB80F982608B83DF91CF9108955B
:10185000CF93DF93EC018A81813099F586E891E09E
:101860000E94CE0B1A8268E084E00E94F20B6F8324
:101870008C8181110DC08091B0029091B102DC0188
:10188000ED91FC910084F185E02D099581508C83C8
:10189000E091B002F091B1028B810280F381E02DE2
:1018A000B3E08B9FE00DF11D1124898580838A852B
:1018B00081838B85828381E08093AF02DF91CF911A
:1018C00008958230D9F71A828CE891E0DF91CF91A8
:1018D0000C94CE0BCF92DF92EF92FF920F931F9357
:1018E000CF93DF9300D01F92CDB7DEB7FC012281EA
:1018F000213081F1C380C1FE2DC08C01C0FACC24FF
:10190000C0F8D12CF12CE12C61E08AE00E94F20BAE
:10191000AB01BC01DC01CA018C199D09AE09BF09EC
:101920004C155D056E057F0508F1892B8A2B8B2BE5
:1019300089F0F801838140FB80F98383982F969585
:1019400096959370E92EF1E09F17A1F032E093177E
:1019500009F480C00F900F900F90DF91CF911F91ED
:101960000F91FF90EF90DF90CF9008950296A11D08
:10197000B11DDBCF282F2295269526952370F801DF
:101980009481F92FF370FF2EFF0CFF0CF22A21E057
:101990002F0D322F3F702295220F220F207C8F7344
:1019A000822BF8018383832F869586959C7F982BC5
:1019B0009483F2E0FF1609F43EC0FF1598F0FF2073
:1019C000A9F131E0F312C6CF8FEF89831A821B820F
:1019D000CE0101960E948C00F092AF02C8010E94D5
:1019E000190CB8CF83E0F81689F194E0F912B2CF60
:1019F00019821A821B82CE0101960E948C00E0920D
:101A0000AF02C8010E94190CF8019381892F8695B5
:101A100086958C70937F892B982F9F7C93838C70F5
:101A2000E9F6838181608D7F838394CF8FEF8983F3
:101A30008A838B8304C0198280E88A831B82CE014B
:101A400001960E948C00E092AF02C8CF19821A82E0
:101A50008FEFEFCF8CEC94E00E94280CD5CF8F92C3
:101A60009F92AF92BF92CF92DF92EF92FF92CF936D
:101A7000DF93EC01888582FD8FC0CE80D12CF12CC4
:101A8000E12CC114D104E104F10409F485C08F8074
:101A9000912CB12CA12C68E084E00E94F20B9B01F8
:101AA000AC01281939094A095B09681579058A05C5
:101AB0009B05B0F149015A018C149D04AE04BF048A
:101AC00008F46AC06F83888582FD66C0B501A401F1
:101AD0004C195D096E097F094F5F5F4F6F4F7F4F54
:101AE00023E031E0411551056105710509F454C049
:101AF000E091B002F091B1028D810280F381E02D7E
:101B0000829FE00DF11D11241082118212829885AE
:101B10008D8190FD76C0EC818E1770F48F5F0FC0C1
:101B200049015A013FEF931AA30AB30AC5CF4150A6
:101B3000510961097109D6CF9160988781508D83D1
:101B4000E091B002F091B1028D810280F381E02D2D
:101B5000829FE00DF11D1124898580838A85818310
:101B60008B8582833093AF028D819B81891303C063
:101B7000988590FD06C09C818913D9CF888580FD0A
:101B8000D6CF61E08AE00E94F20B888560FB81F984
:101B9000982F83FB92F99887C884C2FE27C0C1FAA8
:101BA000CC24C0F8D12CF12CE12C61E08AE00E9419
:101BB000F20B9B01AC012C193D094E095F096C1514
:101BC0007D058E059F0520F169017A01CD28CE287B
:101BD000CF2861F0288560FB21F9288768E084E040
:101BE0000E94F20B6F8388858B7F8887DF91CF916E
:101BF000FF90EF90DF90CF90BF90AF909F908F902D
:101C00000895EB81E81708F499CF9E7F988786CFD7
:101C100069017A0132E0C30ED11CE11CF11CD6CF60
:101C20000E9410130C9406120C9406121F920F922D
:101C30000FB60F9211242F933F934F935F936F939F
:101C40007F938F939F93AF93BF93EF93FF9383E023
:101C500092E00E94E201FF91EF91BF91AF919F91BD
:101C60008F917F916F915F914F913F912F910F9045
:101C70000FBE0F901F9018951F920F920FB60F92E4
:101C800011242F938F939F93EF93FF93E09113026F
:101C9000F09114028081E0911902F0911A0282FD04
:101CA0001BC0908180911C028F5F8F7320911D0259
:101CB000821741F0E0911C02F0E0ED5FFD4F958F3F
:101CC00080931C02FF91EF919F918F912F910F9024
:101CD0000FBE0F901F9018958081F4CF1F920F9226
:101CE0000FB60F9211242F933F938F939F93AF932F
:101CF000BF938091F9019091FA01A091FB01B091FD
:101D0000FC013091BC0123E0230F2D3758F50196DB
:101D1000A11DB11D2093BC018093F9019093FA019C
:101D2000A093FB01B093FC018091BD019091BE0195
:101D3000A091BF01B091C0010196A11DB11D80937A
:101D4000BD019093BE01A093BF01B093C001BF91AC
:101D5000AF919F918F913F912F910F900FBE0F9058
:101D60001F90189526E8230F0296A11DB11DD2CF12
:101D7000EF92FF920F931F93CF93DF93E3E0F2E094
:101D80001382128288EE93E0A0E0B0E08483958312
:101D9000A683B7838EE391E09183808385EC90E006
:101DA0009587848784EC90E09787868780EC90E025
:101DB000918B808B81EC90E0938B828B82EC90E016
:101DC000958B848B86EC90E0978B868B118E128E90
:101DD000138E148E00EA12E08FEFF80180831282D6
:101DE0001182148613864FEF5FEFBA014783508745
:101DF00061877287E8EDF4E091E092832AE631E0B2
:101E000031832083CCECD4E09A8328E531E0398318
:101E10002883898785EA8A871B8668E084E00E9498
:101E2000F20B6F831B821C821D828FECE82E84E0F4
:101E3000F82EF70185818E7F85831E8261E08AE01E
:101E40000E94F20BF701858160FB81F98B7F877F10
:101E50008583EDEAF2E080E591E091838083128250
:101E60001482138282E0858384ED93E0F8019487E5
:101E7000838784EC99E0A0E0B0E087839087A18716
:101E8000B287DF91CF911F910F91FF90EF9008954E
:101E9000CF93DF93CDB7DEB7A1970FB6F894DEBF2F
:101EA0000FBECDBF789484B5826084BD84B5816057
:101EB00084BD85B5826085BD85B5816085BD809115
:101EC0006E00816080936E0010928100809181008D
:101ED0008260809381008091810081608093810085
:101EE000809180008160809380008091B100846047
:101EF0008093B1008091B00081608093B0008091A8
:101F00007A00846080937A0080917A008260809366
:101F10007A0080917A00816080937A0080917A00C3
:101F2000806880937A001092C100E0911302F091D2
:101F3000140282E08083E0910F02F091100210827F
:101F4000E0911102F091120280E1808310921B0255
:101F5000E0911702F091180286E08083E09115026B
:101F6000F0911602808180618083E0911502F091EA
:101F70001602808188608083E0911502F09116023C
:101F8000808180688083E0911502F0911602808143
:101F90008F7D808383E991E00E94C10B8DE991E000
:101FA0000E94C10B8AE991E00E94C10B8091DD047F
:101FB0009091DE048E010F5F1F4F009709F004C15E
:101FC000C801815E94409A838983C980DA800D2C90
:101FD000000CEE08FF08F7FE0EC16DE283E092E010
:101FE0000E94040222273327A9012C193D094E091A
:101FF0005F0919A2CE0181967C017AE0872E912C8F
:10200000A12CB12CCA01B901A50194010E94B312FF
:10201000605DF70162937F0121153105410551058E
:1020200089F7E114F10419F0C7010E94C10B83EA9A
:1020300091E00E94CE0B62E084E00E949A02E6E703
:10204000F0E08491E2EBF0E0E490EEE9F0E0F4906F
:10205000FF2009F4EBC081110E947102EF2DF0E026
:10206000EE0FFF1FEA57FF4FA591B491EC91EE22BE
:1020700009F4DCC085EA91E00E94C10BEE24E394F0
:10208000F12C80EB91E00E94C10BEA94EF2809F05B
:10209000D4C08AE08093D2041092CF0485E080936C
:1020A000D00461E083E00E949A028091D201811104
:1020B00011C081EC91E00E94940B1092D10110921A
:1020C000D0018AE191E09093C2018093C10181E047
:1020D0008093D20181EC91E00E94580783EB92E05B
:1020E0009093C4018093C30183EB90E09093CF0160
:1020F0008093CE018091A3029091A402A091A502A9
:10210000B091A602843C29E09207A105B10520F414
:1021100084EC99E0A0E0B0E08093A3029093A40245
:10212000A093A502B093A60281EC91E09093B10236
:102130008093B00219821A821B82C8010E94F002A9
:102140000E941A0161E08DE00E949A02EFE7F0E040
:102150008491EBEBF0E00491E7EAF0E014911123B5
:1021600091F081110E947102E12FF0E0EE0FFF1F4C
:10217000E057FF4FA591B4918FB7F894EC9100957B
:102180000E230C938FBF8091DB0483708462809355
:10219000DB048091DC048C7F8093DC0488ED94E088
:1021A0000E94190C1092DA0400E010E08DEA92E02F
:1021B0000E94600A01151105C9F30E94CE0188230F
:1021C000A9F30E940000F2CF9801281B390BE0917F
:1021D000DF04F091E00490E080E0309749F002964F
:1021E00040815181840F951F0280F381E02DF5CF4E
:1021F000820F931FE8CEA701960119A2CE01819606
:102200007C016AE0862E912CA12CB12CCA01B90167
:10221000A50194010E94B312605DF70162937F01F2
:10222000211531054105510589F7FBCE8BEA91E077
:102230000E94C10BF12CE12C24CF82E08093D204C8
:102240001092CF041092D00461E087E00E949A02BD
:102250008091EB01811111C08AED91E00E94940BF5
:102260001092EA011092E9018CE291E09093DB0177
:102270008093DA0181E08093EB018AED91E00E9486
:10228000AD0983EB92E09093DD018093DC0183EB59
:1022900090E09093E8018093E7018091A3029091F0
:1022A000A402A091A502B091A602843CE9E09E0799
:1022B000A105B10520F484EC99E0A0E0B0E08093A2
:1022C000A3029093A402A093A502B093A6028AED64
:1022D00091E02CCF0F931F93CF93DF938230910522
:1022E00010F482E090E0E091DF04F091E00430E04F
:1022F00020E0B0E0A0E0309799F42115310509F411
:102300004AC0281B390B24303105D8F58A819B81BE
:102310006115710589F1FB0193838283FE0111C070
:10232000408151810281138148175907E0F0481715
:10233000590799F4109761F012960C93129713961F
:102340001C933296CF01DF91CF911F910F91089589
:102350000093DF041093E004F4CF2115310551F010
:102360004217530738F0A901DB019A01BD01DF01D3
:10237000F801C1CFEF01F9CF9093E0048093DF041F
:10238000CDCFFE01E20FF31F8193919322503109CB
:1023900039832883D7CF2091DD043091DE04232BAD
:1023A00041F420910201309103013093DE04209327
:1023B000DD0420910001309101012115310541F426
:1023C0002DB73EB74091040150910501241B350BF8
:1023D000E091DD04F091DE04E217F307A0F42E1B78
:1023E0003F0B2817390778F0AC014E5F5F4F241779
:1023F000350748F04E0F5F1F5093DE044093DD0415
:10240000819391939FCFF0E0E0E09CCFCF93DF9357
:102410000097E9F0FC01329713821282A091DF0449
:10242000B091E004ED0130E020E01097A1F42081AC
:102430003181820F931F2091DD043091DE04281733
:10244000390709F061C0F093DE04E093DD04DF9109
:10245000CF910895EA01CE17DF07E8F54A815B8145
:102460009E0141155105B1F7E901FB83EA834991CA
:102470005991C40FD51FEC17FD0761F4808191813C
:102480000296840F951FE901998388838281938145
:102490009B838A83F0E0E0E012968D919C911397E4
:1024A0000097B9F52D913C911197CD010296820FBD
:1024B000931F2091DD043091DE042817390739F687
:1024C000309751F51092E0041092DF04B093DE04CF
:1024D000A093DD04BCCFD383C28340815181840F9C
:1024E000951FC817D90761F44E5F5F4F88819981A6
:1024F000480F591F518340838A819B819383828334
:102500002115310509F0B0CFF093E004E093DF042A
:102510009ECFFD01DC01C0CF13821282D7CFDB0139
:102520008F939F930E94DC12BF91AF91A29F800D69
:10253000911DA39F900DB29F900D1124089597FBBC
:10254000072E16F4009407D077FD09D00E94E712F9
:1025500007FC05D03EF4909581959F4F08957095A6
:1025600061957F4F0895A1E21A2EAA1BBB1BFD01A6
:102570000DC0AA1FBB1FEE1FFF1FA217B307E40762
:10258000F50720F0A21BB30BE40BF50B661F771FBA
:10259000881F991F1A9469F760957095809590959A
:1025A0009B01AC01BD01CF0108950E940113B7FF4B
:1025B0000895821B930B08950E940113A59F900D0F
:1025C000B49F900DA49F800D911D11240895AA1B06
:1025D000BB1B51E107C0AA1FBB1FA617B70710F00E
:1025E000A61BB70B881F991F5A95A9F78095909540
:1025F000BC01CD010895EE0FFF1F0590F491E02D71
:102600000994A29FB001B39FC001A39F700D811DCB
:102610001124911DB29F700D811D1124911D0895EB
:0E26200081E090E0F8940C941513F894FFCF2D
:10262E000000E104800000000000100E100E100EDD
:10263E00700B6C0B690B00000000F309AF09580713
:10264E00700B6C0B6101050500000000F309AF096A
:10265E00AD09700B6C0B61015A07000000000402FB
:10266E00640191015102C201A001B40100000000F9
:10267E00600A5A0A00000000360A120E2F0D280CAE
:10268E00E70BDC0B3A0A00000000370A140E6A0C46
:10269E00660B620B5E0B380A0D0A0050617573658E
:1026AE000053746F700053746172740052657375C9
:1026BE006D6500667265656D656D3A2000736574B3
:1026CE007570006200646576656C0070726F6400F0
:0826DE00206D6F64650A000025
:107E0000112484B714BE81FFF0D085E080938100F7
:107E100082E08093C00088E18093C10086E0809377
:107E2000C20080E18093C4008EE0C9D0259A86E02C
:107E300020E33CEF91E0309385002093840096BBD3
:107E4000B09BFECF1D9AA8958150A9F7CC24DD24C4
:107E500088248394B5E0AB2EA1E19A2EF3E0BF2EE7
:107E6000A2D0813461F49FD0082FAFD0023811F036
:107E7000013811F484E001C083E08DD089C08234E0
:107E800011F484E103C0853419F485E0A6D080C0E4
:107E9000853579F488D0E82EFF2485D0082F10E0AE
:107EA000102F00270E291F29000F111F8ED06801E7
:107EB0006FC0863521F484E090D080E0DECF843638
:107EC00009F040C070D06FD0082F6DD080E0C81688
:107ED00080E7D80618F4F601B7BEE895C0E0D1E017
:107EE00062D089930C17E1F7F0E0CF16F0E7DF06D8
:107EF00018F0F601B7BEE89568D007B600FCFDCFD4
:107F0000A601A0E0B1E02C9130E011968C91119780
:107F100090E0982F8827822B932B1296FA010C0160
:107F200087BEE89511244E5F5F4FF1E0A038BF0790
:107F300051F7F601A7BEE89507B600FCFDCF97BE46
:107F4000E89526C08437B1F42ED02DD0F82E2BD052
:107F50003CD0F601EF2C8F010F5F1F4F84911BD097
:107F6000EA94F801C1F70894C11CD11CFA94CF0C13
:107F7000D11C0EC0853739F428D08EE10CD085E9AC
:107F80000AD08FE07ACF813511F488E018D01DD067
:107F900080E101D065CF982F8091C00085FFFCCF94
:107FA0009093C60008958091C00087FFFCCF809118
:107FB000C00084FD01C0A8958091C6000895E0E648
:107FC000F0E098E1908380830895EDDF803219F02E
:107FD00088E0F5DFFFCF84E1DECF1F93182FE3DFCA
:107FE0001150E9F7F2DF1F91089580E0E8DFEE27F6
:047FF000FF270994CA
:027FFE00040479
:0400000300007E007B
:00000001FF
